{
  "contractName": "SachinVishwakarma",
  "abi": [
    {
      "inputs": [],
      "stateMutability": "nonpayable",
      "type": "constructor"
    },
    {
      "inputs": [
        {
          "internalType": "uint256",
          "name": "money",
          "type": "uint256"
        }
      ],
      "name": "spendMoney",
      "outputs": [
        {
          "internalType": "string",
          "name": "",
          "type": "string"
        },
        {
          "internalType": "uint256",
          "name": "",
          "type": "uint256"
        }
      ],
      "stateMutability": "nonpayable",
      "type": "function"
    }
  ],
  "bytecode": "0x608060405234801561001057600080fd5b50336000806101000a81548173ffffffffffffffffffffffffffffffffffffffff021916908373ffffffffffffffffffffffffffffffffffffffff1602179055506127106001819055506103dd806100696000396000f3fe608060405234801561001057600080fd5b506004361061002b5760003560e01c8063d343406814610030575b600080fd5b61004a600480360381019061004591906101d3565b610061565b6040516100589291906102a8565b60405180910390f35b606060003373ffffffffffffffffffffffffffffffffffffffff1660008054906101000a900473ffffffffffffffffffffffffffffffffffffffff1673ffffffffffffffffffffffffffffffffffffffff16146100f3576040517f08c379a00000000000000000000000000000000000000000000000000000000081526004016100ea90610324565b60405180910390fd5b600154831115610140576001546040518060400160405280601c81526020017f596f75206861766520496e73756666696369656e74204d6f6e657920000000008152509091509150610193565b8260015461014e9190610373565b6001819055506001546040518060400160405280601581526020017f52656d61696e696e672042616c616e636520697320000000000000000000000081525090915091505b915091565b600080fd5b6000819050919050565b6101b08161019d565b81146101bb57600080fd5b50565b6000813590506101cd816101a7565b92915050565b6000602082840312156101e9576101e8610198565b5b60006101f7848285016101be565b91505092915050565b600081519050919050565b600082825260208201905092915050565b60005b8381101561023a57808201518184015260208101905061021f565b83811115610249576000848401525b50505050565b6000601f19601f8301169050919050565b600061026b82610200565b610275818561020b565b935061028581856020860161021c565b61028e8161024f565b840191505092915050565b6102a28161019d565b82525050565b600060408201905081810360008301526102c28185610260565b90506102d16020830184610299565b9392505050565b7f4f6e6c79204f776e65722063616e206f776e207468697320636f6e7472616374600082015250565b600061030e60208361020b565b9150610319826102d8565b602082019050919050565b6000602082019050818103600083015261033d81610301565b9050919050565b7f4e487b7100000000000000000000000000000000000000000000000000000000600052601160045260246000fd5b600061037e8261019d565b91506103898361019d565b92508282101561039c5761039b610344565b5b82820390509291505056fea26469706673582212200ef7afd669e8eba2110380a185396a40101046eddf4e4116c1bc504866b86eaa64736f6c63430008080033",
  "immutableReferences": {},
  "source": "// SPDX-License-Identifier: MIT\r\npragma solidity ^0.8.8;\r\n\r\n// Sachin Vishwakarma\r\n// [2019140066 - BEIT]\r\ncontract SachinVishwakarma {\r\n    address owner;\r\n    uint256 ownerBal;\r\n\r\n    constructor() {\r\n        owner = msg.sender;\r\n        ownerBal = 10000;\r\n    }\r\n\r\n    modifier onlyOwner() {\r\n        require(owner == msg.sender, \"Only Owner can own this contract\");\r\n        _;\r\n    }\r\n\r\n    function spendMoney(uint256 money)\r\n        public\r\n        onlyOwner\r\n        returns (string memory, uint256)\r\n    {\r\n        if (money > ownerBal) {\r\n            return (\"You have Insufficient Money \", ownerBal);\r\n        }\r\n\r\n        ownerBal = ownerBal - money;\r\n        return (\"Remaining Balance is \", ownerBal);\r\n    }\r\n}\r\n",
  "sourcePath": "D:\\SEM7\\Lab\\BTC\\F1\\Truffle\\contracts\\CreditCard.sol",
  "compiler": {
    "name": "solc",
    "version": "0.8.8+commit.dddeac2f.Emscripten.clang"
  },
  "schemaVersion": "3.4.10",
  "updatedAt": "2022-11-01T10:25:47.819Z",
  "devdoc": {
    "kind": "dev",
    "methods": {},
    "version": 1
  },
  "userdoc": {
    "kind": "user",
    "methods": {},
    "version": 1
  }
}